{
  "_format": "hh-sol-artifact-1",
  "contractName": "nUSD",
  "sourceName": "contracts/nUSD.sol",
  "abi": [
    {
      "inputs": [
        {
          "internalType": "address",
          "name": "_priceFeedAddress",
          "type": "address"
        }
      ],
      "stateMutability": "nonpayable",
      "type": "constructor"
    },
    {
      "anonymous": false,
      "inputs": [
        {
          "indexed": true,
          "internalType": "address",
          "name": "owner",
          "type": "address"
        },
        {
          "indexed": true,
          "internalType": "address",
          "name": "spender",
          "type": "address"
        },
        {
          "indexed": false,
          "internalType": "uint256",
          "name": "value",
          "type": "uint256"
        }
      ],
      "name": "Approval",
      "type": "event"
    },
    {
      "anonymous": false,
      "inputs": [
        {
          "indexed": true,
          "internalType": "address",
          "name": "from",
          "type": "address"
        },
        {
          "indexed": false,
          "internalType": "uint256",
          "name": "nusdAmount",
          "type": "uint256"
        }
      ],
      "name": "Burn",
      "type": "event"
    },
    {
      "anonymous": false,
      "inputs": [
        {
          "indexed": true,
          "internalType": "address",
          "name": "from",
          "type": "address"
        },
        {
          "indexed": false,
          "internalType": "uint256",
          "name": "ethAmount",
          "type": "uint256"
        },
        {
          "indexed": false,
          "internalType": "uint256",
          "name": "nusdAmount",
          "type": "uint256"
        }
      ],
      "name": "Deposit",
      "type": "event"
    },
    {
      "anonymous": false,
      "inputs": [
        {
          "indexed": true,
          "internalType": "address",
          "name": "to",
          "type": "address"
        },
        {
          "indexed": false,
          "internalType": "uint256",
          "name": "nusdAmount",
          "type": "uint256"
        }
      ],
      "name": "Mint",
      "type": "event"
    },
    {
      "anonymous": false,
      "inputs": [
        {
          "indexed": true,
          "internalType": "address",
          "name": "from",
          "type": "address"
        },
        {
          "indexed": false,
          "internalType": "uint256",
          "name": "nusdAmount",
          "type": "uint256"
        },
        {
          "indexed": false,
          "internalType": "uint256",
          "name": "ethAmount",
          "type": "uint256"
        }
      ],
      "name": "Redeem",
      "type": "event"
    },
    {
      "anonymous": false,
      "inputs": [
        {
          "indexed": true,
          "internalType": "address",
          "name": "from",
          "type": "address"
        },
        {
          "indexed": true,
          "internalType": "address",
          "name": "to",
          "type": "address"
        },
        {
          "indexed": false,
          "internalType": "uint256",
          "name": "value",
          "type": "uint256"
        }
      ],
      "name": "Transfer",
      "type": "event"
    },
    {
      "inputs": [
        {
          "internalType": "address",
          "name": "owner",
          "type": "address"
        },
        {
          "internalType": "address",
          "name": "spender",
          "type": "address"
        }
      ],
      "name": "allowance",
      "outputs": [
        {
          "internalType": "uint256",
          "name": "",
          "type": "uint256"
        }
      ],
      "stateMutability": "view",
      "type": "function"
    },
    {
      "inputs": [
        {
          "internalType": "address",
          "name": "spender",
          "type": "address"
        },
        {
          "internalType": "uint256",
          "name": "amount",
          "type": "uint256"
        }
      ],
      "name": "approve",
      "outputs": [
        {
          "internalType": "bool",
          "name": "",
          "type": "bool"
        }
      ],
      "stateMutability": "nonpayable",
      "type": "function"
    },
    {
      "inputs": [
        {
          "internalType": "address",
          "name": "account",
          "type": "address"
        }
      ],
      "name": "balanceOf",
      "outputs": [
        {
          "internalType": "uint256",
          "name": "",
          "type": "uint256"
        }
      ],
      "stateMutability": "view",
      "type": "function"
    },
    {
      "inputs": [
        {
          "internalType": "uint256",
          "name": "nusdAmount",
          "type": "uint256"
        }
      ],
      "name": "burn",
      "outputs": [],
      "stateMutability": "nonpayable",
      "type": "function"
    },
    {
      "inputs": [],
      "name": "decimals",
      "outputs": [
        {
          "internalType": "uint8",
          "name": "",
          "type": "uint8"
        }
      ],
      "stateMutability": "view",
      "type": "function"
    },
    {
      "inputs": [
        {
          "internalType": "address",
          "name": "spender",
          "type": "address"
        },
        {
          "internalType": "uint256",
          "name": "subtractedValue",
          "type": "uint256"
        }
      ],
      "name": "decreaseAllowance",
      "outputs": [
        {
          "internalType": "bool",
          "name": "",
          "type": "bool"
        }
      ],
      "stateMutability": "nonpayable",
      "type": "function"
    },
    {
      "inputs": [
        {
          "internalType": "uint256",
          "name": "ethAmount",
          "type": "uint256"
        }
      ],
      "name": "deposit",
      "outputs": [],
      "stateMutability": "nonpayable",
      "type": "function"
    },
    {
      "inputs": [],
      "name": "getETHPrice",
      "outputs": [
        {
          "internalType": "uint256",
          "name": "",
          "type": "uint256"
        }
      ],
      "stateMutability": "view",
      "type": "function"
    },
    {
      "inputs": [
        {
          "internalType": "address",
          "name": "spender",
          "type": "address"
        },
        {
          "internalType": "uint256",
          "name": "addedValue",
          "type": "uint256"
        }
      ],
      "name": "increaseAllowance",
      "outputs": [
        {
          "internalType": "bool",
          "name": "",
          "type": "bool"
        }
      ],
      "stateMutability": "nonpayable",
      "type": "function"
    },
    {
      "inputs": [
        {
          "internalType": "address",
          "name": "to",
          "type": "address"
        },
        {
          "internalType": "uint256",
          "name": "nusdAmount",
          "type": "uint256"
        }
      ],
      "name": "mint",
      "outputs": [],
      "stateMutability": "nonpayable",
      "type": "function"
    },
    {
      "inputs": [],
      "name": "name",
      "outputs": [
        {
          "internalType": "string",
          "name": "",
          "type": "string"
        }
      ],
      "stateMutability": "view",
      "type": "function"
    },
    {
      "inputs": [
        {
          "internalType": "uint256",
          "name": "nusdAmount",
          "type": "uint256"
        }
      ],
      "name": "redeem",
      "outputs": [],
      "stateMutability": "nonpayable",
      "type": "function"
    },
    {
      "inputs": [],
      "name": "symbol",
      "outputs": [
        {
          "internalType": "string",
          "name": "",
          "type": "string"
        }
      ],
      "stateMutability": "view",
      "type": "function"
    },
    {
      "inputs": [],
      "name": "totalSupply",
      "outputs": [
        {
          "internalType": "uint256",
          "name": "",
          "type": "uint256"
        }
      ],
      "stateMutability": "view",
      "type": "function"
    },
    {
      "inputs": [
        {
          "internalType": "address",
          "name": "to",
          "type": "address"
        },
        {
          "internalType": "uint256",
          "name": "amount",
          "type": "uint256"
        }
      ],
      "name": "transfer",
      "outputs": [
        {
          "internalType": "bool",
          "name": "",
          "type": "bool"
        }
      ],
      "stateMutability": "nonpayable",
      "type": "function"
    },
    {
      "inputs": [
        {
          "internalType": "address",
          "name": "from",
          "type": "address"
        },
        {
          "internalType": "address",
          "name": "to",
          "type": "address"
        },
        {
          "internalType": "uint256",
          "name": "amount",
          "type": "uint256"
        }
      ],
      "name": "transferFrom",
      "outputs": [
        {
          "internalType": "bool",
          "name": "",
          "type": "bool"
        }
      ],
      "stateMutability": "nonpayable",
      "type": "function"
    }
  ],
  "bytecode": "0x60806040523480156200001157600080fd5b506040516200235f3803806200235f833981810160405281019062000037919062000241565b6040518060400160405280600f81526020017f6e55534420537461626c65636f696e00000000000000000000000000000000008152506040518060400160405280600481526020017f6e555344000000000000000000000000000000000000000000000000000000008152508160039080519060200190620000bb92919062000127565b508060049080519060200190620000d492919062000127565b505050600160058190555080600660006101000a81548173ffffffffffffffffffffffffffffffffffffffff021916908373ffffffffffffffffffffffffffffffffffffffff16021790555050620002d8565b8280546200013590620002a2565b90600052602060002090601f016020900481019282620001595760008555620001a5565b82601f106200017457805160ff1916838001178555620001a5565b82800160010185558215620001a5579182015b82811115620001a457825182559160200191906001019062000187565b5b509050620001b49190620001b8565b5090565b5b80821115620001d3576000816000905550600101620001b9565b5090565b600080fd5b600073ffffffffffffffffffffffffffffffffffffffff82169050919050565b60006200020982620001dc565b9050919050565b6200021b81620001fc565b81146200022757600080fd5b50565b6000815190506200023b8162000210565b92915050565b6000602082840312156200025a5762000259620001d7565b5b60006200026a848285016200022a565b91505092915050565b7f4e487b7100000000000000000000000000000000000000000000000000000000600052602260045260246000fd5b60006002820490506001821680620002bb57607f821691505b60208210811415620002d257620002d162000273565b5b50919050565b61207780620002e86000396000f3fe608060405234801561001057600080fd5b50600436106101005760003560e01c806370a0823111610097578063a9059cbb11610066578063a9059cbb146102c3578063b6b55f25146102f3578063db006a751461030f578063dd62ed3e1461032b57610100565b806370a082311461022757806395d89b4114610257578063a457c2d714610275578063a607a8d9146102a557610100565b8063313ce567116100d3578063313ce567146101a157806339509351146101bf57806340c10f19146101ef57806342966c681461020b57610100565b806306fdde0314610105578063095ea7b31461012357806318160ddd1461015357806323b872dd14610171575b600080fd5b61010d61035b565b60405161011a919061138d565b60405180910390f35b61013d60048036038101906101389190611448565b6103ed565b60405161014a91906114a3565b60405180910390f35b61015b610410565b60405161016891906114cd565b60405180910390f35b61018b600480360381019061018691906114e8565b61041a565b60405161019891906114a3565b60405180910390f35b6101a9610449565b6040516101b69190611557565b60405180910390f35b6101d960048036038101906101d49190611448565b610452565b6040516101e691906114a3565b60405180910390f35b61020960048036038101906102049190611448565b610489565b005b61022560048036038101906102209190611572565b610528565b005b610241600480360381019061023c919061159f565b610611565b60405161024e91906114cd565b60405180910390f35b61025f610659565b60405161026c919061138d565b60405180910390f35b61028f600480360381019061028a9190611448565b6106eb565b60405161029c91906114a3565b60405180910390f35b6102ad610762565b6040516102ba91906114cd565b60405180910390f35b6102dd60048036038101906102d89190611448565b610803565b6040516102ea91906114a3565b60405180910390f35b61030d60048036038101906103089190611572565b610826565b005b61032960048036038101906103249190611572565b6108f4565b005b610345600480360381019061034091906115cc565b610a0d565b60405161035291906114cd565b60405180910390f35b60606003805461036a9061163b565b80601f01602080910402602001604051908101604052809291908181526020018280546103969061163b565b80156103e35780601f106103b8576101008083540402835291602001916103e3565b820191906000526020600020905b8154815290600101906020018083116103c657829003601f168201915b5050505050905090565b6000806103f8610a94565b9050610405818585610a9c565b600191505092915050565b6000600254905090565b600080610425610a94565b9050610432858285610c67565b61043d858585610cf3565b60019150509392505050565b60006012905090565b60008061045d610a94565b905061047e81858561046f8589610a0d565b610479919061169c565b610a9c565b600191505092915050565b600081116104cc576040517f08c379a00000000000000000000000000000000000000000000000000000000081526004016104c390611764565b60405180910390fd5b6104d68282610f6b565b8173ffffffffffffffffffffffffffffffffffffffff167f0f6798a560793a54c3bcfe86a93cde1e73087d944c0ea20544137d41213968858260405161051c91906114cd565b60405180910390a25050565b6000811161056b576040517f08c379a000000000000000000000000000000000000000000000000000000000815260040161056290611764565b60405180910390fd5b8061057533610611565b10156105b6576040517f08c379a00000000000000000000000000000000000000000000000000000000081526004016105ad906117d0565b60405180910390fd5b6105c033826110c2565b3373ffffffffffffffffffffffffffffffffffffffff167fcc16f5dbb4873280815c1ee09dbd06736cffcc184412cf7a71a0fdb75d397ca58260405161060691906114cd565b60405180910390a250565b60008060008373ffffffffffffffffffffffffffffffffffffffff1673ffffffffffffffffffffffffffffffffffffffff168152602001908152602001600020549050919050565b6060600480546106689061163b565b80601f01602080910402602001604051908101604052809291908181526020018280546106949061163b565b80156106e15780601f106106b6576101008083540402835291602001916106e1565b820191906000526020600020905b8154815290600101906020018083116106c457829003601f168201915b5050505050905090565b6000806106f6610a94565b905060006107048286610a0d565b905083811015610749576040517f08c379a000000000000000000000000000000000000000000000000000000000815260040161074090611862565b60405180910390fd5b6107568286868403610a9c565b60019250505092915050565b600080600660009054906101000a900473ffffffffffffffffffffffffffffffffffffffff1673ffffffffffffffffffffffffffffffffffffffff1663feaf968c6040518163ffffffff1660e01b815260040160a060405180830381865afa1580156107d2573d6000803e3d6000fd5b505050506040513d601f19601f820116820180604052508101906107f6919061190f565b5050509150508091505090565b60008061080e610a94565b905061081b818585610cf3565b600191505092915050565b61082e611290565b60008111610871576040517f08c379a0000000000000000000000000000000000000000000000000000000008152600401610868906119fc565b60405180910390fd5b600060646032836108829190611a1c565b61088c9190611aa5565b90506108983382610f6b565b3373ffffffffffffffffffffffffffffffffffffffff167f90890809c654f11d6e72a28fa60149770a0d11ec6c92319d6ceb2bb0a4ea1a1583836040516108e0929190611ad6565b60405180910390a2506108f16112e0565b50565b6108fc611290565b6000811161093f576040517f08c379a000000000000000000000000000000000000000000000000000000000815260040161093690611764565b60405180910390fd5b8061094933610611565b101561098a576040517f08c379a0000000000000000000000000000000000000000000000000000000008152600401610981906117d0565b60405180910390fd5b6000600160028361099b9190611a1c565b6109a59190611aa5565b90506109b133836110c2565b3373ffffffffffffffffffffffffffffffffffffffff167fe5b754fb1abb7f01b499791d0b820ae3b6af3424ac1c59768edb53f4ec31a92983836040516109f9929190611ad6565b60405180910390a250610a0a6112e0565b50565b6000600160008473ffffffffffffffffffffffffffffffffffffffff1673ffffffffffffffffffffffffffffffffffffffff16815260200190815260200160002060008373ffffffffffffffffffffffffffffffffffffffff1673ffffffffffffffffffffffffffffffffffffffff16815260200190815260200160002054905092915050565b600033905090565b600073ffffffffffffffffffffffffffffffffffffffff168373ffffffffffffffffffffffffffffffffffffffff161415610b0c576040517f08c379a0000000000000000000000000000000000000000000000000000000008152600401610b0390611b71565b60405180910390fd5b600073ffffffffffffffffffffffffffffffffffffffff168273ffffffffffffffffffffffffffffffffffffffff161415610b7c576040517f08c379a0000000000000000000000000000000000000000000000000000000008152600401610b7390611c03565b60405180910390fd5b80600160008573ffffffffffffffffffffffffffffffffffffffff1673ffffffffffffffffffffffffffffffffffffffff16815260200190815260200160002060008473ffffffffffffffffffffffffffffffffffffffff1673ffffffffffffffffffffffffffffffffffffffff168152602001908152602001600020819055508173ffffffffffffffffffffffffffffffffffffffff168373ffffffffffffffffffffffffffffffffffffffff167f8c5be1e5ebec7d5bd14f71427d1e84f3dd0314c0f7b2291e5b200ac8c7c3b92583604051610c5a91906114cd565b60405180910390a3505050565b6000610c738484610a0d565b90507fffffffffffffffffffffffffffffffffffffffffffffffffffffffffffffffff8114610ced5781811015610cdf576040517f08c379a0000000000000000000000000000000000000000000000000000000008152600401610cd690611c6f565b60405180910390fd5b610cec8484848403610a9c565b5b50505050565b600073ffffffffffffffffffffffffffffffffffffffff168373ffffffffffffffffffffffffffffffffffffffff161415610d63576040517f08c379a0000000000000000000000000000000000000000000000000000000008152600401610d5a90611d01565b60405180910390fd5b600073ffffffffffffffffffffffffffffffffffffffff168273ffffffffffffffffffffffffffffffffffffffff161415610dd3576040517f08c379a0000000000000000000000000000000000000000000000000000000008152600401610dca90611d93565b60405180910390fd5b610dde8383836112ea565b60008060008573ffffffffffffffffffffffffffffffffffffffff1673ffffffffffffffffffffffffffffffffffffffff16815260200190815260200160002054905081811015610e64576040517f08c379a0000000000000000000000000000000000000000000000000000000008152600401610e5b90611e25565b60405180910390fd5b8181036000808673ffffffffffffffffffffffffffffffffffffffff1673ffffffffffffffffffffffffffffffffffffffff16815260200190815260200160002081905550816000808573ffffffffffffffffffffffffffffffffffffffff1673ffffffffffffffffffffffffffffffffffffffff168152602001908152602001600020600082825401925050819055508273ffffffffffffffffffffffffffffffffffffffff168473ffffffffffffffffffffffffffffffffffffffff167fddf252ad1be2c89b69c2b068fc378daa952ba7f163c4a11628f55a4df523b3ef84604051610f5291906114cd565b60405180910390a3610f658484846112ef565b50505050565b600073ffffffffffffffffffffffffffffffffffffffff168273ffffffffffffffffffffffffffffffffffffffff161415610fdb576040517f08c379a0000000000000000000000000000000000000000000000000000000008152600401610fd290611e91565b60405180910390fd5b610fe7600083836112ea565b8060026000828254610ff9919061169c565b92505081905550806000808473ffffffffffffffffffffffffffffffffffffffff1673ffffffffffffffffffffffffffffffffffffffff168152602001908152602001600020600082825401925050819055508173ffffffffffffffffffffffffffffffffffffffff16600073ffffffffffffffffffffffffffffffffffffffff167fddf252ad1be2c89b69c2b068fc378daa952ba7f163c4a11628f55a4df523b3ef836040516110aa91906114cd565b60405180910390a36110be600083836112ef565b5050565b600073ffffffffffffffffffffffffffffffffffffffff168273ffffffffffffffffffffffffffffffffffffffff161415611132576040517f08c379a000000000000000000000000000000000000000000000000000000000815260040161112990611f23565b60405180910390fd5b61113e826000836112ea565b60008060008473ffffffffffffffffffffffffffffffffffffffff1673ffffffffffffffffffffffffffffffffffffffff168152602001908152602001600020549050818110156111c4576040517f08c379a00000000000000000000000000000000000000000000000000000000081526004016111bb90611fb5565b60405180910390fd5b8181036000808573ffffffffffffffffffffffffffffffffffffffff1673ffffffffffffffffffffffffffffffffffffffff1681526020019081526020016000208190555081600260008282540392505081905550600073ffffffffffffffffffffffffffffffffffffffff168373ffffffffffffffffffffffffffffffffffffffff167fddf252ad1be2c89b69c2b068fc378daa952ba7f163c4a11628f55a4df523b3ef8460405161127791906114cd565b60405180910390a361128b836000846112ef565b505050565b600260055414156112d6576040517f08c379a00000000000000000000000000000000000000000000000000000000081526004016112cd90612021565b60405180910390fd5b6002600581905550565b6001600581905550565b505050565b505050565b600081519050919050565b600082825260208201905092915050565b60005b8381101561132e578082015181840152602081019050611313565b8381111561133d576000848401525b50505050565b6000601f19601f8301169050919050565b600061135f826112f4565b61136981856112ff565b9350611379818560208601611310565b61138281611343565b840191505092915050565b600060208201905081810360008301526113a78184611354565b905092915050565b600080fd5b600073ffffffffffffffffffffffffffffffffffffffff82169050919050565b60006113df826113b4565b9050919050565b6113ef816113d4565b81146113fa57600080fd5b50565b60008135905061140c816113e6565b92915050565b6000819050919050565b61142581611412565b811461143057600080fd5b50565b6000813590506114428161141c565b92915050565b6000806040838503121561145f5761145e6113af565b5b600061146d858286016113fd565b925050602061147e85828601611433565b9150509250929050565b60008115159050919050565b61149d81611488565b82525050565b60006020820190506114b86000830184611494565b92915050565b6114c781611412565b82525050565b60006020820190506114e260008301846114be565b92915050565b600080600060608486031215611501576115006113af565b5b600061150f868287016113fd565b9350506020611520868287016113fd565b925050604061153186828701611433565b9150509250925092565b600060ff82169050919050565b6115518161153b565b82525050565b600060208201905061156c6000830184611548565b92915050565b600060208284031215611588576115876113af565b5b600061159684828501611433565b91505092915050565b6000602082840312156115b5576115b46113af565b5b60006115c3848285016113fd565b91505092915050565b600080604083850312156115e3576115e26113af565b5b60006115f1858286016113fd565b9250506020611602858286016113fd565b9150509250929050565b7f4e487b7100000000000000000000000000000000000000000000000000000000600052602260045260246000fd5b6000600282049050600182168061165357607f821691505b602082108114156116675761166661160c565b5b50919050565b7f4e487b7100000000000000000000000000000000000000000000000000000000600052601160045260246000fd5b60006116a782611412565b91506116b283611412565b9250827fffffffffffffffffffffffffffffffffffffffffffffffffffffffffffffffff038211156116e7576116e661166d565b5b828201905092915050565b7f6e55534420616d6f756e74206d7573742062652067726561746572207468616e60008201527f207a65726f000000000000000000000000000000000000000000000000000000602082015250565b600061174e6025836112ff565b9150611759826116f2565b604082019050919050565b6000602082019050818103600083015261177d81611741565b9050919050565b7f496e73756666696369656e74206e5553442062616c616e636500000000000000600082015250565b60006117ba6019836112ff565b91506117c582611784565b602082019050919050565b600060208201905081810360008301526117e9816117ad565b9050919050565b7f45524332303a2064656372656173656420616c6c6f77616e63652062656c6f7760008201527f207a65726f000000000000000000000000000000000000000000000000000000602082015250565b600061184c6025836112ff565b9150611857826117f0565b604082019050919050565b6000602082019050818103600083015261187b8161183f565b9050919050565b600069ffffffffffffffffffff82169050919050565b6118a181611882565b81146118ac57600080fd5b50565b6000815190506118be81611898565b92915050565b6000819050919050565b6118d7816118c4565b81146118e257600080fd5b50565b6000815190506118f4816118ce565b92915050565b6000815190506119098161141c565b92915050565b600080600080600060a0868803121561192b5761192a6113af565b5b6000611939888289016118af565b955050602061194a888289016118e5565b945050604061195b888289016118fa565b935050606061196c888289016118fa565b925050608061197d888289016118af565b9150509295509295909350565b7f45544820616d6f756e74206d7573742062652067726561746572207468616e2060008201527f7a65726f00000000000000000000000000000000000000000000000000000000602082015250565b60006119e66024836112ff565b91506119f18261198a565b604082019050919050565b60006020820190508181036000830152611a15816119d9565b9050919050565b6000611a2782611412565b9150611a3283611412565b9250817fffffffffffffffffffffffffffffffffffffffffffffffffffffffffffffffff0483118215151615611a6b57611a6a61166d565b5b828202905092915050565b7f4e487b7100000000000000000000000000000000000000000000000000000000600052601260045260246000fd5b6000611ab082611412565b9150611abb83611412565b925082611acb57611aca611a76565b5b828204905092915050565b6000604082019050611aeb60008301856114be565b611af860208301846114be565b9392505050565b7f45524332303a20617070726f76652066726f6d20746865207a65726f2061646460008201527f7265737300000000000000000000000000000000000000000000000000000000602082015250565b6000611b5b6024836112ff565b9150611b6682611aff565b604082019050919050565b60006020820190508181036000830152611b8a81611b4e565b9050919050565b7f45524332303a20617070726f766520746f20746865207a65726f20616464726560008201527f7373000000000000000000000000000000000000000000000000000000000000602082015250565b6000611bed6022836112ff565b9150611bf882611b91565b604082019050919050565b60006020820190508181036000830152611c1c81611be0565b9050919050565b7f45524332303a20696e73756666696369656e7420616c6c6f77616e6365000000600082015250565b6000611c59601d836112ff565b9150611c6482611c23565b602082019050919050565b60006020820190508181036000830152611c8881611c4c565b9050919050565b7f45524332303a207472616e736665722066726f6d20746865207a65726f20616460008201527f6472657373000000000000000000000000000000000000000000000000000000602082015250565b6000611ceb6025836112ff565b9150611cf682611c8f565b604082019050919050565b60006020820190508181036000830152611d1a81611cde565b9050919050565b7f45524332303a207472616e7366657220746f20746865207a65726f206164647260008201527f6573730000000000000000000000000000000000000000000000000000000000602082015250565b6000611d7d6023836112ff565b9150611d8882611d21565b604082019050919050565b60006020820190508181036000830152611dac81611d70565b9050919050565b7f45524332303a207472616e7366657220616d6f756e742065786365656473206260008201527f616c616e63650000000000000000000000000000000000000000000000000000602082015250565b6000611e0f6026836112ff565b9150611e1a82611db3565b604082019050919050565b60006020820190508181036000830152611e3e81611e02565b9050919050565b7f45524332303a206d696e7420746f20746865207a65726f206164647265737300600082015250565b6000611e7b601f836112ff565b9150611e8682611e45565b602082019050919050565b60006020820190508181036000830152611eaa81611e6e565b9050919050565b7f45524332303a206275726e2066726f6d20746865207a65726f2061646472657360008201527f7300000000000000000000000000000000000000000000000000000000000000602082015250565b6000611f0d6021836112ff565b9150611f1882611eb1565b604082019050919050565b60006020820190508181036000830152611f3c81611f00565b9050919050565b7f45524332303a206275726e20616d6f756e7420657863656564732062616c616e60008201527f6365000000000000000000000000000000000000000000000000000000000000602082015250565b6000611f9f6022836112ff565b9150611faa82611f43565b604082019050919050565b60006020820190508181036000830152611fce81611f92565b9050919050565b7f5265656e7472616e637947756172643a207265656e7472616e742063616c6c00600082015250565b600061200b601f836112ff565b915061201682611fd5565b602082019050919050565b6000602082019050818103600083015261203a81611ffe565b905091905056fea26469706673582212208f10ad058955fb09d5b31423a5ae06f65f9e48118c32f45ef6435723b36dd87364736f6c634300080c0033",
  "linkReferences": {},
  "deployedLinkReferences": {}
}